{
  "contractName": "Atleth",
  "abi": [
    {
      "constant": true,
      "inputs": [],
      "name": "numberOfBets",
      "outputs": [
        {
          "name": "",
          "type": "uint256"
        }
      ],
      "payable": false,
      "stateMutability": "view",
      "type": "function"
    },
    {
      "constant": true,
      "inputs": [
        {
          "name": "",
          "type": "address"
        }
      ],
      "name": "playerInfo",
      "outputs": [
        {
          "name": "amountBet",
          "type": "uint256"
        },
        {
          "name": "teamSelected",
          "type": "uint16"
        }
      ],
      "payable": false,
      "stateMutability": "view",
      "type": "function"
    },
    {
      "constant": true,
      "inputs": [],
      "name": "totalBetOne",
      "outputs": [
        {
          "name": "",
          "type": "uint256"
        }
      ],
      "payable": false,
      "stateMutability": "view",
      "type": "function"
    },
    {
      "constant": true,
      "inputs": [],
      "name": "owner",
      "outputs": [
        {
          "name": "",
          "type": "address"
        }
      ],
      "payable": false,
      "stateMutability": "view",
      "type": "function"
    },
    {
      "constant": true,
      "inputs": [],
      "name": "totalBetTwo",
      "outputs": [
        {
          "name": "",
          "type": "uint256"
        }
      ],
      "payable": false,
      "stateMutability": "view",
      "type": "function"
    },
    {
      "constant": true,
      "inputs": [],
      "name": "minimumBet",
      "outputs": [
        {
          "name": "",
          "type": "uint256"
        }
      ],
      "payable": false,
      "stateMutability": "view",
      "type": "function"
    },
    {
      "constant": true,
      "inputs": [],
      "name": "maxAmountOfBets",
      "outputs": [
        {
          "name": "",
          "type": "uint256"
        }
      ],
      "payable": false,
      "stateMutability": "view",
      "type": "function"
    },
    {
      "constant": true,
      "inputs": [
        {
          "name": "",
          "type": "uint256"
        }
      ],
      "name": "players",
      "outputs": [
        {
          "name": "",
          "type": "address"
        }
      ],
      "payable": false,
      "stateMutability": "view",
      "type": "function"
    },
    {
      "inputs": [],
      "payable": false,
      "stateMutability": "nonpayable",
      "type": "constructor"
    },
    {
      "payable": true,
      "stateMutability": "payable",
      "type": "fallback"
    },
    {
      "constant": false,
      "inputs": [],
      "name": "kill",
      "outputs": [],
      "payable": false,
      "stateMutability": "nonpayable",
      "type": "function"
    },
    {
      "constant": true,
      "inputs": [
        {
          "name": "player",
          "type": "address"
        }
      ],
      "name": "checkPlayerExists",
      "outputs": [
        {
          "name": "",
          "type": "bool"
        }
      ],
      "payable": false,
      "stateMutability": "view",
      "type": "function"
    },
    {
      "constant": false,
      "inputs": [
        {
          "name": "_teamSelected",
          "type": "uint8"
        }
      ],
      "name": "bet",
      "outputs": [],
      "payable": true,
      "stateMutability": "payable",
      "type": "function"
    },
    {
      "constant": false,
      "inputs": [
        {
          "name": "teamWinner",
          "type": "uint16"
        }
      ],
      "name": "distributePrizes",
      "outputs": [],
      "payable": false,
      "stateMutability": "nonpayable",
      "type": "function"
    },
    {
      "constant": true,
      "inputs": [
        {
          "name": "teamWinner",
          "type": "uint16"
        }
      ],
      "name": "Odd",
      "outputs": [
        {
          "name": "",
          "type": "uint256"
        }
      ],
      "payable": false,
      "stateMutability": "view",
      "type": "function"
    },
    {
      "constant": true,
      "inputs": [],
      "name": "AmountOne",
      "outputs": [
        {
          "name": "",
          "type": "uint256"
        }
      ],
      "payable": false,
      "stateMutability": "view",
      "type": "function"
    },
    {
      "constant": true,
      "inputs": [],
      "name": "AmountTwo",
      "outputs": [
        {
          "name": "",
          "type": "uint256"
        }
      ],
      "payable": false,
      "stateMutability": "view",
      "type": "function"
    }
  ],
  "bytecode": "0x60806040526103e860055534801561001657600080fd5b50336000806101000a81548173ffffffffffffffffffffffffffffffffffffffff021916908373ffffffffffffffffffffffffffffffffffffffff160217905550655af3107a4000600181905550610ccb806100736000396000f3006080604052600436106100db576000357c0100000000000000000000000000000000000000000000000000000000900463ffffffff1680631c5be7f1146100dd5780632ca8c6d3146101225780634081d9161461014d57806341c0e1b5146101a85780634996d51d146101bf5780634b114691146101ea57806365733592146102505780637863117e1461027b5780637904f688146102a65780638da5cb5b146102d7578063c2b5a5041461032e578063c38a8afd14610359578063d0821b0e14610384578063e08a96cd146103a7578063f71d96cb146103d2575b005b3480156100e957600080fd5b5061010c600480360381019080803561ffff16906020019092919050505061043f565b6040518082815260200191505060405180910390f35b34801561012e57600080fd5b5061013761059c565b6040518082815260200191505060405180910390f35b34801561015957600080fd5b5061018e600480360381019080803573ffffffffffffffffffffffffffffffffffffffff1690602001909291905050506105a2565b604051808215151515815260200191505060405180910390f35b3480156101b457600080fd5b506101bd610645565b005b3480156101cb57600080fd5b506101d46106d6565b6040518082815260200191505060405180910390f35b3480156101f657600080fd5b5061022b600480360381019080803573ffffffffffffffffffffffffffffffffffffffff1690602001909291905050506106e0565b604051808381526020018261ffff1661ffff1681526020019250505060405180910390f35b34801561025c57600080fd5b50610265610712565b6040518082815260200191505060405180910390f35b34801561028757600080fd5b5061029061071c565b6040518082815260200191505060405180910390f35b3480156102b257600080fd5b506102d5600480360381019080803561ffff169060200190929190505050610722565b005b3480156102e357600080fd5b506102ec610a3a565b604051808273ffffffffffffffffffffffffffffffffffffffff1673ffffffffffffffffffffffffffffffffffffffff16815260200191505060405180910390f35b34801561033a57600080fd5b50610343610a5f565b6040518082815260200191505060405180910390f35b34801561036557600080fd5b5061036e610a65565b6040518082815260200191505060405180910390f35b6103a5600480360381019080803560ff169060200190929190505050610a6b565b005b3480156103b357600080fd5b506103bc610be5565b6040518082815260200191505060405180910390f35b3480156103de57600080fd5b506103fd60048036038101908080359060200190929190505050610beb565b604051808273ffffffffffffffffffffffffffffffffffffffff1673ffffffffffffffffffffffffffffffffffffffff16815260200191505060405180910390f35b6000806000806000806000945060009350600092505b6006805490508310156105535760068381548110151561047157fe5b9060005260206000200160009054906101000a900473ffffffffffffffffffffffffffffffffffffffff1691508661ffff16600760008473ffffffffffffffffffffffffffffffffffffffff1673ffffffffffffffffffffffffffffffffffffffff16815260200190815260200160002060010160009054906101000a900461ffff1661ffff16141561054657600760008373ffffffffffffffffffffffffffffffffffffffff1673ffffffffffffffffffffffffffffffffffffffff16815260200190815260200160002060000154850194505b8280600101935050610455565b60018761ffff16141561056f576003549350600254945061057a565b600254935060035494505b84612710850281151561058957fe5b0460010190508095505050505050919050565b60045481565b600080600090505b60068054905081101561063a578273ffffffffffffffffffffffffffffffffffffffff166006828154811015156105dd57fe5b9060005260206000200160009054906101000a900473ffffffffffffffffffffffffffffffffffffffff1673ffffffffffffffffffffffffffffffffffffffff16141561062d576001915061063f565b80806001019150506105aa565b600091505b50919050565b6000809054906101000a900473ffffffffffffffffffffffffffffffffffffffff1673ffffffffffffffffffffffffffffffffffffffff163373ffffffffffffffffffffffffffffffffffffffff1614156106d4576000809054906101000a900473ffffffffffffffffffffffffffffffffffffffff1673ffffffffffffffffffffffffffffffffffffffff16ff5b565b6000600254905090565b60076020528060005260406000206000915090508060000154908060010160009054906101000a900461ffff16905082565b6000600354905090565b60025481565b61072a610c29565b600080600080600080600080600097506000965060009550600094505b60068054905085101561084d5760068581548110151561076357fe5b9060005260206000200160009054906101000a900473ffffffffffffffffffffffffffffffffffffffff1693508961ffff16600760008673ffffffffffffffffffffffffffffffffffffffff1673ffffffffffffffffffffffffffffffffffffffff16815260200190815260200160002060010160009054906101000a900461ffff1661ffff161415610840578389896103e88110151561080057fe5b602002019073ffffffffffffffffffffffffffffffffffffffff16908173ffffffffffffffffffffffffffffffffffffffff168152505087806001019850505b8480600101955050610747565b60018a61ffff1614156108695760035496506002549550610874565b600254965060035495505b600092505b878310156109af57600073ffffffffffffffffffffffffffffffffffffffff1689846103e8811015156108a857fe5b602002015173ffffffffffffffffffffffffffffffffffffffff161415156108e15788836103e8811015156108d957fe5b602002015191505b600760008373ffffffffffffffffffffffffffffffffffffffff1673ffffffffffffffffffffffffffffffffffffffff16815260200190815260200160002060000154905088836103e88110151561093557fe5b602002015173ffffffffffffffffffffffffffffffffffffffff166108fc612710886127108b0281151561096557fe5b0461271001840281151561097557fe5b049081150290604051600060405180830381858888f193505050501580156109a1573d6000803e3d6000fd5b508280600101935050610879565b600760008573ffffffffffffffffffffffffffffffffffffffff1673ffffffffffffffffffffffffffffffffffffffff1681526020019081526020016000206000808201600090556001820160006101000a81549061ffff021916905550506000600681610a1d9190610c4e565b506000600281905550600060038190555050505050505050505050565b6000809054906101000a900473ffffffffffffffffffffffffffffffffffffffff1681565b60035481565b60015481565b610a74336105a2565b151515610a8057600080fd5b6001543410151515610a9157600080fd5b34600760003373ffffffffffffffffffffffffffffffffffffffff1673ffffffffffffffffffffffffffffffffffffffff168152602001908152602001600020600001819055508060ff16600760003373ffffffffffffffffffffffffffffffffffffffff1673ffffffffffffffffffffffffffffffffffffffff16815260200190815260200160002060010160006101000a81548161ffff021916908361ffff16021790555060046000815480929190600101919050555060063390806001815401808255809150509060018203906000526020600020016000909192909190916101000a81548173ffffffffffffffffffffffffffffffffffffffff021916908373ffffffffffffffffffffffffffffffffffffffff1602179055505060018160ff161415610bd15734600260008282540192505081905550610be2565b346003600082825401925050819055505b50565b60055481565b600681815481101515610bfa57fe5b906000526020600020016000915054906101000a900473ffffffffffffffffffffffffffffffffffffffff1681565b617d00604051908101604052806103e890602082028038833980820191505090505090565b815481835581811115610c7557818360005260206000209182019101610c749190610c7a565b5b505050565b610c9c91905b80821115610c98576000816000905550600101610c80565b5090565b905600a165627a7a7230582020a9df3392ef067141cba686e3cba42567107fe342afce7b0c0b42df5d19d48a0029",
  "source": "pragma solidity ^0.4.2;\n\ncontract Atleth {\n   address public owner;\n   uint256 public minimumBet;\n   uint256 public totalBetOne;\n    uint256 public totalBetTwo;\n   uint256 public numberOfBets;\n   uint256 public maxAmountOfBets = 1000;\n\n   address[] public players;\n\n   struct Player {\n      uint256 amountBet;\n      uint16 teamSelected;\n   }\n\n   // The address of the player and => the user info\n   mapping(address => Player) public playerInfo;\n\n   function() public payable {}\n\n   function Atleth() public {\n      owner = msg.sender;\n      minimumBet = 100000000000000;\n   }\n\n   function kill() public {\n      if(msg.sender == owner) selfdestruct(owner);\n   }\n\n   function checkPlayerExists(address player) public constant returns(bool){\n      for(uint256 i = 0; i < players.length; i++){\n         if(players[i] == player) return true;\n      }\n      return false;\n   }\n\n\n   // To bet for a number between 1 and 10 both inclusive\n   function bet(uint8 _teamSelected) public payable {\n      require(!checkPlayerExists(msg.sender));\n      require(msg.value >= minimumBet);\n      playerInfo[msg.sender].amountBet = msg.value;\n      playerInfo[msg.sender].teamSelected = _teamSelected;\n      numberOfBets++;\n      players.push(msg.sender);\n      if ( _teamSelected == 1){\n          totalBetOne += msg.value;\n      }\n      else{\n          totalBetTwo += msg.value;\n      }\n   }\n   // Generates a number between 1 and 10 that will be the winner\n\n   // Sends the corresponding ether to each winner depending on the total bets\n   function distributePrizes(uint16 teamWinner) public {\n      address[1000] memory winners; // We have to create a temporary in memory array with fixed size\n      uint256 count = 0; // This is the count for the array of winners\n      uint256 LoserBet = 0;\n      uint256 WinnerBet = 0;\n      for(uint256 i = 0; i < players.length; i++){\n         address playerAddress = players[i];\n\n         if(playerInfo[playerAddress].teamSelected == teamWinner){\n            winners[count] = playerAddress;\n            count++;\n         }\n      }\n\n      if ( teamWinner == 1){\n         LoserBet = totalBetTwo;\n         WinnerBet = totalBetOne;\n      }\n      else{\n          LoserBet = totalBetOne;\n          WinnerBet = totalBetTwo;\n      }\n\n      for(uint256 j = 0; j < count; j++){\n         if(winners[j] != address(0)) // Check that the address in this fixed array is not empty\n            address add = winners[j];\n            uint256 bet = playerInfo[add].amountBet;\n\n            winners[j].transfer(    (bet*(10000+(LoserBet*10000/WinnerBet)))/10000 );\n      }\n      delete playerInfo[playerAddress]; // Delete all the players\n      players.length = 0; // Delete all the players array\n      totalBetOne = 0;\n      totalBetTwo = 0;\n   }\n\n   function Odd(uint16 teamWinner) public view returns(uint256){\n      uint256 WinnerBet = 0;\n      uint256 LoserBet = 0;\n      for(uint256 i = 0; i < players.length; i++){\n         address playerAddress = players[i];\n         if(playerInfo[playerAddress].teamSelected == teamWinner){\n            WinnerBet += playerInfo[playerAddress].amountBet;\n         }\n      }\n    if ( teamWinner == 1){\n         LoserBet = totalBetTwo;\n         WinnerBet = totalBetOne;\n      }\n      else{\n          LoserBet = totalBetOne;\n          WinnerBet = totalBetTwo;\n      }\n      uint256 cote = 1+(LoserBet*10000/WinnerBet);\n      return cote;\n   }\n\n   function AmountOne() public view returns(uint256){\n       return totalBetOne;\n   }\n\n   function AmountTwo() public view returns(uint256){\n       return totalBetTwo;\n   }\n\n\n\n}\n",
  "sourcePath": "/Users/stephaneguichard/workspace-min/atleth/contracts/Atleth.sol",
  "compiler": {
    "name": "solc",
    "version": "0.4.23+commit.124ca40d.Emscripten.clang"
  },
  "schemaVersion": "2.0.0",
  "updatedAt": "2018-06-06T16:07:50.142Z"
}